:100000006F60D063130000001300000013000000B5
:100010001300000013000000130000001300000094
:100020001300000013000000130000001300000084
:08003000130000007300100032
:1000380000000000000000007E3C0000823C000040
:1000480000000000826D00000000000000000000B9
:10005800846D0000866D00000000000000000000B4
:10006800886D0000000000008A6D0000000000009C
:100078008C6D00008E6D0000906D0000926D000088
:10008800946D0000966D0000986D0000843C00009F
:10009800A03C00009E6D0000A06D0000A26D000055
:1000A800A46D0000A66D0000A86D0000AA6D0000F8
:1000B800CC670000AA670000B06D0000B26D0000B8
:1000C800B46D0000B66D0000B86D0000BA6D000098
:1000D800BC6D0000BE6D0000C06D0000C26D000068
:1000E800AA63000052640000C86D0000CA6D0000D9
:1000F800CC6D0000CE6D0000D06D0000D26D000008
:10010800D46D0000D66D0000E0660000DA6D0000D6
:10011800BC3C0000DE6D0000E06D0000E26D0000F8
:10012800E46D0000E66D0000E86D0000EA6D000077
:10013800EC6D0000EE6D0000F06D0000F26D000047
:10014800F46D0000F66D0000F86D0000FA6D000017
:10015800FC6D0000FE6D0000006E0000026E0000E5
:10016800046E0000066E0000086E00000A6E0000B3
:100178000C6E00000E6E0000106E0000126E000083
:10018800146E0000983F0000186E00001A6E000000
:100198001C6E00001E6E0000206E0000226E000023
:1001A800246E0000266E0000286E00002A6E0000F3
:1001B8002C6E00002E6E0000306E0000326E0000C3
:1001C800346E0000366E0000386E00003A6E000093
:1001D8000000000000000000000000000000000017
:1001E8000000000000000000000000000000000007
:0801F8000000000000000000FF
:100200003D432A876373C3029377F700BDEFADE5E3
:10021000937606FF3D8ABA960CC34CC30CC74CC7F5
:100220004107E36BD7FE11E28280B306C3408A0622
:100230009702000096966780A6002307B700A306E2
:10024000B7002306B700A305B7002305B700A30432
:10025000B7002304B700A303B7002303B700A3022A
:10026000B7002302B700A301B7002301B700A30022
:10027000B7002300B700828093F5F50F93968500B1
:10028000D58D93960501D58D61B79396270097027A
:10029000000096968682E78086FA9680C1171D8FA9
:1002A0003E96E374C3F8A5B7FD5741652380F5007A
:1002B00005058280597186D6A2D4A6D2CAD0CECEE8
:1002C000D2CCD6CADAC8DEC6E2C4E6C2EAC06EDE66
:1002D00003470500FD461346070863F2C602238064
:1002E000E500F5462E89138C150063EFE66EA166D6
:1002F0000A079386866D369718432A8402876D37DE
:10030000AA84B6502654268506599654F649664A5C
:10031000D64A464BB64B264C964C064DF25D65616F
:100320008280A38005000347150013892500054C32
:1003300093052500130AF7FF854463090772B70A7E
:1003400010FFB7190140FD1AB70C3000130B000263
:10035000FD5BA1A883A709C0138D09C04A86B3F726
:10036000570123A0F9C083A709C0A285B3E797016D
:1003700023A0F9C023286D01EF20205F63100A023B
:1003800083A709C0B3F7570123A0F9C083A709C009
:10039000B3E7970123A0F9C023286D018504B305B5
:1003A000B401EE947D1A63037A6D03C505001384CE
:1003B0001500A14D9377F50389C7938D770093DDE1
:1003C0003D0093178501E187E3D607F883A709C0AD
:1003D00037078000138D09C0B3F7570123A0F9C078
:1003E00083A709C04A86A285D98F23A0F9C02328F4
:1003F0006D01EF20805763100A0283A709C0B3F78D
:10040000570123A0F9C083A709C0B3E7970123A030
:10041000F9C023286D0185046E996E9CA28559B799
:1004200003C641918946631AD66413874191834775
:1004300015008346A701A30DF70063F0D764394583
:10044000EF107014EF10004E9356850013570501FE
:1004500093578501B7040200A30009002301A900F6
:10046000A301D9002302E900A302F900990451BDB8
:100470000347150093894191238DE9006308071014
:1004800003462500854623920902238EC900631482
:10049000D7006F10001A8346350089452393C9029F
:1004A000A38ED900B296630BB7068345450023940B
:1004B000D9020D45238FB900AE966301A706834587
:1004C000540011452395D902A38FB900AE96630756
:1004D000A7048345640015452396D9022380B902F9
:1004E000AE96630DA7028345740019452397D90280
:1004F000A380B902AE966303A702834584001D451D
:100500002398D9022381B902AE966309A7008347D5
:1005100094002399D902A381F902BE9683C7D90119
:10052000918E239AD9029D8E239BD9028947630F0E
:10053000F70403C6E9018D47918E239CD902630716
:10054000F70403C6F9019147918E239DD902630FE9
:10055000F70203C609029547918E239ED9026307CD
:10056000F70203C619029947918E239FD902630FA0
:10057000F70003C629029D47918E2390D904630793
:10058000F70083C739029D8E2391D9049304170085
:10059000C204C16793E414008507A3000900BE9458
:1005A0008DB383C641910546638FC65A094663954C
:1005B000C65613874191834615000346A701A30D34
:1005C000D70063FBC6542145EF10E07B834634001F
:1005D00003462400034744000345540093978600D4
:1005E000B3E6C70093170701D58F62055D8DB70489
:1005F0000600EF10604C8904A300090019B383CAF8
:1006000041910547638CEA6809476388EA58A380EB
:10061000050023810500A38105000D4C034744001C
:10062000098B63090750B7040400336C9C00C16454
:100630008504E294F9B1834625000346150003477B
:10064000350083474500A206D18E4207558FE20749
:10065000D98F8E07638F074E37A74A041307F71FFA
:10066000E37AF75C938741910547A380E70005474C
:10067000D8C3B7040500A3000900890459B1C164B7
:1006800023810500A38005008D04A5B9034725003B
:100690008346150093178700D58F13971700BA97D5
:1006A00092073ED6B257FD173ED6EDFFB7040300C2
:1006B000A30009008904B1B1C164238A0190A38019
:1006C000050089043DB9034715006306073C8547CB
:1006D0006303F73C89476316F748238AE190B7160E
:1006E00002408C4EB7170140214693E585008CCE21
:1006F0008C4E0D6593E505018CCE23A8C7C09306EB
:10070000000223A8D7C083A507C0C576FD16F58DC6
:1007100023A0B7C083A507C0C98D23A0B7C083A5F8
:1007200007C0370510FF7D15E98D23A0B7C083A54D
:1007300007C037053000C98D23A0B7C098CB9145BD
:100740008CCB90CB8C437D751305F50F93F5F5F0AD
:100750008CC38C4393E505038CC38C43E98D8CC318
:100760008C4393E505308CC38C43ED8E94C3944346
:10077000A165CD8E94C390CBB7040200A300E9001D
:10078000890441B6034715008547E3F1E7F2FD57B9
:10079000B7040300A380F5008904A5B683471500BC
:1007A0001307000FE380E750637EF7261307E00F7F
:1007B000E38FE74C1307F00F6398E72CC1572381B1
:1007C000F500A3810500B704020089479104A30046
:1007D000F90005BE83C741919306150005473ECA3F
:1007E00036CE638AE7580947E386E70C03472500BE
:1007F0001304350009EB6F00100AC18B91EB05045F
:100800007D17E30A07088347040093F62700F5F6EF
:100810001504FDB7834715001387419193F6370000
:1008200089838506858B230CD700A30CF700B704BA
:100830000200A38005008904E9B40345150093056F
:1008400024006303052E930475008D808504C20483
:10085000C16793E414008507BE94EF20600AA300EB
:10086000090045B4A380050003471500138925003E
:1008700013042500930AF7FF054B8544630D071801
:10088000FD5B3DA09D0993D93900138C1900528559
:10089000620AA2854A86135A8A41EF00107B4E9461
:1008A000E29463540A004E994E9BFD1A63857A17B1
:1008B000034A040005049379FA03E39509FC254CE7
:1008C000A149F1B783461500138741912306D7004C
:1008D0008346350003462500B7040600A206D18EE4
:1008E0002318D70083465500034645008904939793
:1008F0008600D18F2319F700A380050019B4834423
:1009000045008345350083465500034725000346CF
:100910006500A204CD8CC206C58E937A170093148D
:10092000860183471500D58C638B0A0093F6170068
:10093000E3820634B7160140214623A8C6C0137AC5
:100940002700630C0A0093F62700E3870630B716EA
:1009500001401306000223A8C6C093794700638BA9
:10096000090093D62700858AE3800630B716014038
:10097000114690CA131487016184634D04068DC823
:1009800063870A00B7170140938707C0DC476307F6
:100990000A00B7170140938707C09C476385090089
:1009A000B7170140DC4763550400B7170140DC4727
:1009B000371701400326C7C0832687C05C470C4712
:1009C0005847918BA1890D82CD8F058A9182D18F55
:1009D000898A1A07D58F13770708D98FB7040700BC
:1009E000A300F900890431BAFD57C1642300F9005E
:1009F000850401BA9D836C10E399072EB7F700E0D8
:100A00009387C7D015453ED6EF206004B717014045
:100A10000947D8CBADB7C204C167B3E46401850709
:100A2000BE94C5B011476391E7069387018203C561
:100A3000070083C5170003C6270083C6370003C716
:100A4000470083C75700B70402002301A900A3038E
:100A5000F9009947A301B9002302C900A302D900F4
:100A60002303E900A104A300F90061B8C204C1672F
:100A7000B3E484018507BE9469B0FD57B704020052
:100A8000A300F9008904B5B8B704020081478904BE
:100A9000A300F900BDB00547238AE1903717024053
:100AA000144FB7170140214693E6860014CF144F28
:100AB00093E6060114CF23A8C7C01307000223A89A
:100AC000E7C003A707C0C576FD16758F23A0E7C052
:100AD00003A707C08D66558F23A0E7C003A707C0F3
:100AE000B70610FFFD16758F23A0E7C003A707C048
:100AF000B7063000558F23A0E7C0094798CB1147B0
:100B000098CB90CB9443054793F6F6F094C3944367
:100B100093E6060394C38DB1FD57B7040600A30006
:100B2000F90089046FF0EFFDB70422008904130572
:100B3000001025B38344340083472400A204DD8CD5
:100B40008504CA04C167B3E484018507BE946FF0CD
:100B50004FFBFD57B7040500A380F50089046FF033
:100B60004FFA014711B98346350003462500034774
:100B7000450083475500A206D18E4207558FE207F4
:100B8000D98F6C100145B70406003ED68904EF10DA
:100B9000106CA30009006FF0CFF6938941910347D1
:100BA000150083C6A901238C0194A38DE900138B42
:100BB0004500E377D710834D350003472500A20D8C
:100BC000B3E7ED003EC6E38D070E834B450093F778
:100BD0001B00A9073E853EC8EF10E01A13F72B0053
:100BE000DE8CE31E0724930D540002C4130AC102D5
:100BF000894C83C61D0083C50D0003C62D0003C7A5
:100C00003D00A206CD8E4206558E6207518F03DD50
:100C100009013AD6910D09A863020D0603C7819513
:100C20007D1D1377F70F39EBD2855E85EF10E0510C
:100C3000E30495FF8547E310F534B2472247FD17DB
:100C400005073EC63AC4D5F7C24729476385E70082
:100C50002945EF10401303DA0901894909A8630FF8
:100C60000A0003C781957D1A1377F70F01EB8145C1
:100C70003945EF10804DAA8AE30335FFA24713D709
:100C8000870013FDF70F1377F70FA300A9012301C6
:100C9000E900A3015901330C8B4149B2034D3500E2
:100CA00003472500220DB367ED00238C01943EC657
:100CB000938B4500E3880704034B450093894191DA
:100CC00003D7090193762B00E397060A930D55008D
:100CD00002C4130AC102894C83C51D0003C50D005F
:100CE00003C62D0083C63D00A205C98D42064D8E68
:100CF000E206D18E36D6910D3A8D09A8630D0D040A
:100D000083C681957D1D93F6F60FB1E6D2855A858F
:100D1000EF10F053AA8AE30395FF8547631DF502A0
:100D2000B2472247FD1705073AC43EC603D709015B
:100D3000C5F73A8A894909A8630F0A0003C7819554
:100D40007D1A1377F70F01EB81453945EF103050CD
:100D5000AA8AE30335FFA24713D7870093FDF70F55
:100D60001377F70FA300B9012301E900A30159018B
:100D7000338C8B4165B0834B250093873500238CE2
:100D800001943EC813043500E3800B1E02CC0145DC
:100D900002C4014B93894191894A054D034A0400DD
:100DA000930714003EC693772A00638F071483DDF0
:100DB0000901EE87630F0B0493771A01639CA70167
:100DC00035A263870D2483C78195FD1D93F7F70F27
:100DD000639007246C103945EF107047E30355FF0B
:100DE000014B631EA50D4247B2571107BA8513D6B2
:100DF000870093D607013AC813D78701238EF5FEE3
:100E0000A38EC5FE238FD5FEA38FE5FE83D70901F0
:100E1000BE8D93760A0113761A0063870616834CFB
:100E20002400034514008346340083454400A20C8B
:100E3000B3ECAC0013075400C206B3E696013AC601
:100E4000939C8501B3ECDC0003D429010DC611A8E5
:100E5000FD1DFD576385FD0683C7819593F7F70F49
:100E6000B9EF81455285EF10903EE30355FF6318BB
:100E7000A50583D70901BE8D09A863800D0803C7A6
:100E80008195FD1D1377F70F2DEB6C105285EF1038
:100E9000103CAA86E30355FF83A749013257F98F17
:100EA000631EA5056385FC0E19C483C781957D1457
:100EB00093F7F70FDDDF13E506011375F50F3244E5
:100EC00039A0C18B91EB0504FD1B63850B0883479B
:100ED000040013F7270075F71504FDB7E3810DFE35
:100EE00083C78195FD1D93F7F70FF1FB6C105285B9
:100EF000EF10F035E30455FFEDB5325783A74901F4
:100F00007D8FE39AECFA65BF63160B1083462400CD
:100F1000034614000347340083474400A206D18EE1
:100F20004207558FE207D98F3ED613770A02150480
:100F3000630A071223AAF900014B0545224783C71C
:100F4000819505073AC493F7F70F63940714FD1BC7
:100F5000E3960BE485476301F55C9377F50F3ECA92
:100F6000F247B304F440C247C204338C8741A2471E
:100F7000B3E48401A300F900D2472301F900C1675B
:100F80008507BE946FF0EFB719CE63060B063244A7
:100F900002CC6DB7FD1DFD57E383FDF283C781953C
:100FA00093F7F70F89FF6C105285EF10502AE30377
:100FB00055FFE316A5F14247B25732449305470067
:100FC00013D6870093D6070113D787012EC8238E27
:100FD000F5FEA38EC5FE238FD5FEA38FE5FE02CCC2
:100FE000B1BFFD1DFD57E38CFDEC83C7819593F7E1
:100FF000F70FE39607EC81455285EF105025E30289
:1010000055FFE31EA5EB02CC054B324405BF22C6BB
:10101000014B75B583DC090111A8E3820CEA83C793
:101020008195FD1C93F7F70FE39B07E86C1039459A
:10103000EF10F021E30355FFE313A5E94247B25750
:101040001107BA853AC813D6870093D6070113D77C
:101050008701238EF5FEA38EC5FE238FD5FEA38FB9
:10106000E5FE6DB503DB090109A863040B0283C724
:1010700081957D1B93F7F70FD9FB6C105285EF100C
:10108000101DE30455FFE314A5F985473ECC014B41
:1010900075B522C62DB5F247A3000900230109004A
:1010A000B304F440C204C16793E424008507BE94EE
:1010B0006FF02FA5938941910347150083C6A901BD
:1010C000238C0194A38DE900138D35006371D744FF
:1010D000834B250013043500638C0B6802C4014662
:1010E000014B894A034A0400930714003EC6937CCF
:1010F0001A0093772A00A90C63840714630C0B165B
:1011000083DD09016396CC0013770A01630007129F
:10111000A947630FF6002945EF00F04611A8638E3A
:101120000D2803C78195FD1D1377F70F631E073444
:101130006C103945EF106001AA86E30255FF29467D
:10114000014B85476393F638B25793064D001377EA
:101150000A0113D8870013D5070193D5870123000F
:10116000FD00A3000D012301AD00A301BD00368DDC
:1011700063160710324463030B28224783C7819507
:1011800005073AC493F7F70F6399074AFD1BE39BE2
:101190000BF4834D8100A9476305F6002945EF0054
:1011A000903E83D90901630E0B56130AC102894A86
:1011B00011A8638F095883C78195FD1993F7F70F1D
:1011C00063980758D2853945EF003078E30355FF1F
:1011D0000547EE876312E5023257110D93558700DC
:1011E0001356070193568701230EEDFEA30EBDFE95
:1011F000230FCDFEA30FDDFE7247330C8D41A300FC
:10120000F900B304E440C204C167B3E48401850774
:101210002301A900BE946FF0CF8E63880D2A03C707
:101220008195FD1D1377F70F6311072A6C10528506
:1012300032C8EF009071AA864246E30055FF11B70D
:1012400063100B12834624008345140003473400C7
:1012500083474400A206CD8E4207558FE207D98FFF
:101260003ED613770A021504630C071423AAF9006B
:10127000014B21B793770A016382071803472400C3
:1012800083451400834734008346440022074D8F72
:10129000C207D98F13978601D98F3EC89307540090
:1012A0003EC603D429016385CC006685EF00B02DCE
:1012B00083DD090109A863890D0683C78195FD1D9A
:1012C00093F7F70FB5E381455285EF001068AA86C2
:1012D000E30355FF85476319F50483DD090109A878
:1012E00063840D0683C78195FD1D93F7F70FB5E75E
:1012F0006C105285EF007065AA86E30355FF83A743
:10130000490132570546F98F6312C504424763000D
:10131000F71219C483C781957D1493F7F70FD5DFB2
:10132000136505019376F50F6686324439A0C18BAB
:1013300091EB0504FD1B63810B1A8347040013F72F
:10134000270075F71504FDB73257524583A74901A9
:101350007D8FC247E396E7FCC1BF52453257FDB7C8
:10136000A9476305F6002945EF00F02183DD090157
:1013700009A863850D0483C78195FD1D93F7F70FB9
:1013800095EF6C103945EF00505CAA86E30355FFDA
:1013900085476315F502B257110D294693D587008D
:1013A00093D6070113D78701230EFDFEA30EBDFEC2
:1013B000230FDDFEA30FEDFE71B5014BA94CADB7B8
:1013C0006385CC006685EF00101C03DB090111A8C2
:1013D000630F0B0E83C781957D1B93F7F70F639AFD
:1013E000070E6C105285EF005056AA86E30255FF97
:1013F00085476310F50E6686014B41B36385CC00CB
:101400006685EF00501803D4090101A83DC883C7C1
:1014100081957D1493F7F70FADE781455285EF0075
:10142000D0522A8BE30455FF85476310F536668654
:101430003244A1B33E97B357F70293894191A380F9
:10144000090005476386E70085070D4733D7E702A4
:1014500023A2E9006FF0EFA1B716014013060002C6
:1014600023AAC6C06FF06FCFB71601401146D0CA8D
:101470006FF04FD0B7160140214623AAC6C06FF0C7
:101480000FCC8946014B4DB5A94C014B71BD91471D
:101490002381F500B704020085478D04A300F900FD
:1014A0006FE03FE6CD472381F5008547A381F50036
:1014B000B704020089479104A300F9006FE07FE4BC
:1014C000814A0147014D6FF04FFCB28CB1BD22C67D
:1014D000A1BD22C6014B89BD83478100054713F595
:1014E000F60FBE8DE39AE6D07DB1B707FA059107F6
:1014F00035453ED6EF10A055B7170140094798CBA8
:101500006FF0EFC7814A0147814D6FF0BF8513042B
:10151000250081470145CDB163070B1C83DA090122
:10152000130AC102894911A8E38C0AA283C78195D5
:10153000FD1A93F7F70FE39507A2D2853945EF100F
:1015400000512ACAE30235FF8547E31BF5A0424755
:10155000B2571107BA853AC813D6870093D6070148
:1015600013D78701238EF5FEA38EC5FE238FD5FEEC
:10157000A38FE5FEF5B293761B0085CABA8C094AA3
:1015800011A863820C1C03C78195FD1C1377F70F0C
:10159000631B071A81455A85EF10604BE30345FF33
:1015A00005476311E52003D70901B24702C4130AB6
:1015B000C102138DF7FF894C630E0D04BA8D09A883
:1015C000638F0D0483C68195FD1D93F6F60FA1EA86
:1015D000D2855A85EF10A047E30495FF854763192C
:1015E000F51A3257A247910B1356870093560701FD
:1015F0008507238EEBFE61833EC4A38ECBFE238F33
:10160000DBFEA38FEBFE63090DF47D1D03D70901FB
:10161000E3160DFA93761B00D5D2394B45B7A24796
:10162000894A13D7870093FDF70F1377F70F6FF0F1
:101630006FF3239A09026FE07FF58546FDB903DA5F
:101640000901094D09A8630A0A0C03C781957D1A8F
:101650001377F70F79E381455E85EF00102FE304E0
:10166000A5FF0547631AE50AB24702C4130AC1027F
:10167000938DF7FF894B63800D0603DD090111A8E7
:10168000630E0DDE03C781957D1D1377F70F63177A
:1016900007DED2856685EF00502BE30375FF854793
:1016A000631BF50C3257A247110B13568700935654
:1016B00007018507230EEBFE6183A30FEBFE3EC4FB
:1016C000A30ECBFE230FDBFE1387FDFF63850D0802
:1016D000BA8DE3940DFAC2472947B94CE38FE7F876
:1016E0002945552559BFE247E38C078683D909016F
:1016F000094A11A8E386098683C78195FD1993F7E6
:10170000F70FE39F078481453945EF1040342ACA1B
:10171000E30245FF6FF0DF84AA8A0147014D6FF0B5
:10172000CFD6094A09A8638E090083C78195FD19A0
:1017300093F7F70F99E781453945EF001021E3044E
:1017400045FFEE8755BC894A0147814D6FF08FE117
:10175000EE87524555B413D7870013FDF70F137763
:10176000F70F854A6FF06FD202C402CA6FF04FFFC5
:101770000145814751B4A247AA8A13D7870013FDB8
:10178000F70F1377F70F6FF04FD0AA86014B69BEA2
:10179000A247AA8A13D7870093FDF70F1377F70F95
:1017A0006FF04FDCAA8A0147814D6FF0AFDB8347B2
:1017B00005009306F0076384D7006FE0BFAF011107
:1017C00022CC26CA4AC84EC606CE52C456C2238070
:1017D000F50083471500B709020013042500A38014
:1017E000F500138925009384F7FF890995C3416AA1
:1017F0007D1AFD5ACA852285EFE0DFAB135705013C
:10180000B3774501FD14AA993A943E99E39454FFA5
:10181000F24062444E85D2444249B249224A924A39
:101820000561828093874191239A01901947D8C31B
:101830001307400698CB05472386070023AA070015
:10184000239CE700238D07008280011126CC22CE45
:101850004ACA937EF503B28463940E00930E00048B
:1018600093770504CDCBB71701401307000223A8D7
:10187000E7C0371301401376050813844191914363
:10188000130E03C0A142A14F1D49850503C8F5FFF2
:1018900083284400F6860145E11E330FD940937733
:1018A0001800A9CF23287300232AFE0146C6B24799
:1018B000FD173EC6EDFF8327830023285E0046C444
:1018C00013D73700A247FD173EC4EDFF93177700EB
:1018D000058193F7F70F3307DF00FD161358180043
:1018E0005D8D6380D603C5FEB357E50019C2238022
:1018F000F4007244E244524905618280232A730055
:1019000065B701E6E3930EF8EDB72380A4008504E4
:10191000E39D0EF6F9BFB71701401307000223AA93
:10192000E7C081BF138741915043B7170140930629
:10193000000223A8D7C0A146397123AAD7C032CA52
:10194000D247FD173ECAEDFFB7170140A14623A8B5
:10195000D7C032C8C247FD173EC8EDFFB7170140D8
:101960009306000223AAD7C0A14623AAD7C032C635
:10197000B247FD173EC6EDFFB7170140A14623A8A9
:10198000D7C032C4A247FD173EC4EDFFB7170140D0
:10199000A14623AAD7C032C29247FD173EC2EDFF2F
:1019A000B7170140A14623A8D7C032C08247FD1710
:1019B0003EC0EDFF0347B7010DC7B7160140938640
:1019C00006C02145A145CCCA32CEF247FD173ECE16
:1019D000EDFF88CA32CCE247FD173ECCEDFF7D1704
:1019E0007DF337180140FD468145130508C02143AA
:1019F000A148232A150132D29257FD173ED2EDFF9E
:101A0000832788002328650032D013D737008257F8
:101A1000FD173ED0EDFF9317F701CD8FFD1693D53F
:101A20001700E1FAB71701401307000223A8E7C027
:101A3000214723AAE7C032DEF257FD173EDEEDFF55
:101A4000B71701408847214723A8E7C00D8132DC42
:101A5000E257FD173EDCEDFFB717014021477E0539
:101A600023AAE7C04D8D32DAD257FD173EDAEDFFDB
:101A7000B7170140214723A8E7C032D8C257FD1746
:101A80003ED8EDFFB71701401307000223AAE7C0B5
:101A9000214723AAE7C032D6B257FD173ED6EDFF45
:101AA000B7170140214723A8E7C032D4A257FD173A
:101AB0003ED4EDFF2161828093854191D841B717D3
:101AC00001409306000223A8D7C0A146597123AA5A
:101AD000D7C03ACAD247FD173ECAEDFFB71701403B
:101AE000A14623A8D7C03AC8C247FD173EC8EDFF9C
:101AF000B71701409306000223AAD7C0A14623AA24
:101B0000D7C03AC6B247FD173EC6EDFFB717014032
:101B1000A14623A8D7C03AC4A247FD173EC4EDFF93
:101B2000B7170140A14623AAD7C03AC29247FD1772
:101B30003EC2EDFFB7170140A14623A8D7C03AC067
:101B40008247FD173EC0EDFF83C6B5019DC637161F
:101B50000140130606C0A1482148232A06013ACEB7
:101B6000F247FD173ECEEDFF232816013ACCE2479F
:101B7000FD173ECCEDFFFD16EDF2B7170140914683
:101B8000D4CBA14623AAD7C03ADAD257FD173EDA02
:101B9000EDFFB7170140A14623A8D7C03AD8C257D6
:101BA000FD173ED8EDFFB7170140A14623AAD7C0C5
:101BB0003AD6B257FD173ED6EDFFB7170140A14602
:101BC00023A8D7C03AD4A257FD173ED4EDFFB717CC
:101BD0000140A14623AAD7C03AD29257FD173ED260
:101BE000EDFFB7170140A14623A8D7C03AD08257CE
:101BF000FD173ED0EDFF37180140FD46114E13068C
:101C000008C02143A1489377150063890712232850
:101C1000C801232A16013ADEF257FD173EDEEDFF1A
:101C2000232866003ADCE257FD173EDCEDFFFD1687
:101C30000581F1FA83C6A50103C6B501854705896B
:101C4000918E6382F610B717014011467DE9D0CB23
:101C5000B7170140214623AAC7C0BAC29647FD174D
:101C6000BEC2EDFFB7170140214623A8C7C0BAC0C6
:101C70008647FD17BEC0EDFFF91695C63716014021
:101C8000130606C02148214548CABAC6B647FD1703
:101C9000BEC6EDFF23280601BAC4A647FD17BEC481
:101CA000EDFFFD16F5F2B71701409306000223A8D9
:101CB000D7C0A14623AAD7C0BACAD647FD17BECA05
:101CC000EDFFB7170140A14623A8D7C0BAC8C64741
:101CD000FD17BEC8EDFFD841B7170140A14623AAA2
:101CE000D7C0BAD6B657FD17BED6EDFFB71701401D
:101CF000A14623A8D7C0BAD4A657FD17BED4EDFF7E
:101D0000B71701409306000223AAD7C0A14623AA11
:101D1000D7C0BAD29657FD17BED2EDFFB717014014
:101D2000A14623A8D7C0BAD08657FD17BED0EDFF75
:101D3000B7170140114798CB65618280232AC801FB
:101D4000C9BD90CB31B7B71701401306000223A8D5
:101D5000C7C091461DE5D4CBB7170140A14623AAC1
:101D6000D7C0BACEF647FD17BECEEDFFB71701407C
:101D7000A14623A8D7C0BACCE647FD17BECCEDFFDD
:101D800099BF94CBD1BF138741918346B701834557
:101D90001700938786008607BA9703D64701FDCDC3
:101DA00037180140930708C09308000223A81701C1
:101DB000A145CCCB8CCBCCCB8CCB23AA1701CCCBE5
:101DC0008CCBCCCB8CCB91452328B800A14509C640
:101DD000CCCB8CCB7D166DFEB307D70083C7C70174
:101DE000B71501409148FD17214695C3137315009F
:101DF000138805C06308030823A8150123AAC5C0DA
:101E000023A8C5C0FD170581F5F38346B701C106B8
:101E1000860636978357470105896380072C371755
:101E200001409146631D053054CBB716014013871E
:101E300006C0214650CB10CB114690CAFD17A146D3
:101E400089C754CB14CBFD17EDFFB717014013071B
:101E5000000223A8E7C0214723AAE7C023A8E7C0C0
:101E6000B7160140214723AAE6C023A8E6C01306FF
:101E7000000223AAC6C023AAE6C023A8E6C0914751
:101E80009CCA828023AA1501232AC8002328C800DF
:101E9000FD170581A1FF8346B70195BF5C43B715C8
:101EA00001401308000223A805C121481D7123AA7F
:101EB00005C1BEC08645FD15AEC0EDFDB71501409C
:101EC000214823A805C1BEC29645FD15AEC2EDFD51
:101ED000B7150140214823AA05C1BEC4A645FD157A
:101EE000AEC4EDFDB7150140214823A805C1BEC60B
:101EF000B645FD15AEC6EDFDB7150140130800024D
:101F000023AA05C1214823AA05C1BEC8C645FD159F
:101F1000AEC8EDFDB7150140214823A805C1BECAD2
:101F2000D645FD15AECAEDFDB7150140214823AADF
:101F300005C1BECCE645FD15AECCEDFDB7150140A3
:101F4000214823A805C1BECEF645FD15AECEEDFD58
:101F50003718014091452328B8002143130808C0D1
:101F6000A1480DC2232A18013EDCE255FD152EDCE6
:101F7000EDFD232868003EDEF255FD152EDEEDFD59
:101F80007D166DF23306D7000346C6017D1631C2B9
:101F9000B71501409148138805C0214E214393761F
:101FA0001500638D061423A81501232A68003ED866
:101FB000C256FD1636D8EDFE2328C8013EDAD256A9
:101FC000FD1636DAEDFE7D16058171FA8346B701FE
:101FD0005C43C10686063697835647010589371745
:101FE0000140638006121146631F051450CB37175A
:101FF00001402146232AC7C03ED422577D173AD438
:102000006DFF3717014021462328C7C03ED63257FF
:102010007D173AD66DFF37160140114718CAFD16D5
:10202000130606C02145A14599CE4CCA3ED00257A1
:102030007D173AD06DFF08CA3ED212577D173AD2AB
:102040006DFFFD16FDF237170140930600022328AD
:10205000D7C0A146232AD7C03ECC62477D173ACCD1
:102060006DFF37170140A1462328D7C03ECE7247E7
:102070007D173ACE6DFF37170140A146232AD7C0FE
:102080003EC002477D173AC06DFF37170140A14699
:102090002328D7C03EC212477D173AC26DFF3717BB
:1020A000014093060002232AD7C0A146232AD7C0A5
:1020B0003EC422477D173AC46DFF37170140A14641
:1020C0002328D7C03EC6B247FD173EC6EDFFB7175F
:1020D0000140114798CB25618280B71701409306D4
:1020E000000223A8D7C0114729EDD8CBB71701406C
:1020F000214723AAE7C023A8E7C09DB323AA15015F
:102100006DB5130600022328C7C091461DE554CBC8
:1021100037170140A146232AD7C03EC842477D1742
:102120003AC86DFF37170140A1462328D7C03ECAE1
:1021300052477D173ACA6DFF3DBF14CBD1BF14CBB8
:10214000EDB198CB65B710CB5DB51386419183484F
:10215000B60183471600468763870710B71701400B
:10216000938707C01308000223A80701A146D4CB18
:1021700094CB23AA0701D4CB94CBD4CB94CB638646
:102180000800D4CB94CB7D176DFF93571500858B3A
:1021900063840734B7170140114798CBB716014045
:1021A000214323AA66C09C461357250023A866C076
:1021B0008983058B13F8270091476304073C9CCA69
:1021C00037170140214E232AC7C1144793573500C2
:1021D0002328C7C18D82858B858A6381073A914701
:1021E0001CCBB7170140138707C02143232A670080
:1021F0009C47054E232867008583918BB3E7070131
:10220000DD8E6384C62F930700021CCB232A670050
:1022100023286700B7150140214723AAE5C023A85A
:10222000E5C01308000223AA05C123AAE5C023A81C
:10223000E5C091479CC91375050819C12324060000
:102240000347C6009307F7FF01CF37170140130775
:1022500007C02146FD5550CB10CBFD17E39DB7FEBF
:1022600013F5F60F82805C42B71601401308000296
:1022700023A806C12148717123AA06C13ECDEA46B2
:10228000FD1636CDEDFEB7160140214823A806C144
:102290003ECFFA46FD1636CFEDFEB71601401308C5
:1022A000000223AA06C1214823AA06C13ED18A56AC
:1022B000FD1636D1EDFEB7160140214823A806C110
:1022C0003ED39A56FD1636D3EDFEB716014021488F
:1022D00023AA06C13ED5AA56FD1636D5EDFEB71681
:1022E0000140214823A806C13ED7BA56FD1636D76D
:1022F000EDFE6388080237180140130808C0214E1C
:102300002143232A68003EC9CA46FD1636C9EDFEA0
:102310002328C8013ECBDA46FD1636CBEDFE7D17ED
:102320006DF313571500058B63050724371701401C
:10233000914614CB37170140A146232AD7C0BEDCF3
:1023400066577D17BADC6DFFB716014098462148E5
:1023500023A806C10D83BEDE76587D18C2DEE31DBC
:1023600008FE13582500060713781800137327007A
:10237000914637170140630C081E14CB37170140F4
:10238000A146232AD7C03EC10A487D1842C1E31D99
:1023900008FE3717014014472148232807C18D82C2
:1023A000858A3EC31A487D1842C3E31D08FE1357B1
:1023B0003500058B6305072C37170140114823288A
:1023C0000701371701402148232A07C13EC52A4883
:1023D0007D1842C5E31D08FE371801400327880019
:1023E000214E2328C8C10D833EC73A487D1842C7F5
:1023F000E31D08FE0A07118B33676700D98E054776
:102400006383E61837170140930500022328B7C0FD
:10241000A145232AB7C0BED846577D17BAD86DFF4D
:1024200037170140A1452328B7C0BEDA56577D179C
:10243000BADA6DFF37170140A145232AB7C03EC85D
:1024400042477D173AC86DFF37170140A145232841
:10245000B7C03ECA52477D173ACA6DFF37170140D1
:1024600093050002232AB7C0A145232AB7C03ECC5A
:1024700062477D173ACC6DFF37170140A1452328ED
:10248000B7C03ECE72477D173ACE6DFF3717014079
:1024900091450CCB1375050819C123240600034789
:1024A000C6001306F7FF15CFB7150140938505C089
:1024B00021482145C8C93EC422477D173AC46DFF53
:1024C00023A805013EC632477D173AC66DFF1307A4
:1024D000F6FF01CA3A86F9BFB71701401147D8CBBA
:1024E00075B913F5F60F4D618280937725006390DF
:1024F000072A9841FD4737180140114EA145937EA8
:102500001700130308C0638C0E302328C801232A48
:10251000B8C02328B8C0FD170583F5F38347A6018B
:102520000348B6018545058BB38707416387B738F4
:10253000631207303717014091454CCB37170140E4
:10254000130707C0A1454CCB0CCBF91789C74CCB5F
:102550000CCBFD17EDFFB71701401307000223A8AE
:10256000E7C0214723AAE7C023A8E7C065B154CB41
:1025700031B537170140914654CB6DBB91475CCBC9
:102580008DB1DCCA35B913772500631007108C4173
:10259000B71801407D48114E138308C0214FA14E4A
:1025A00013F71500630A072623A8C801232AD301BD
:1025B000BEC006477D17BAC06DFF2328E301BEC227
:1025C00016477D17BAC26DFF7D188581E31A08FC96
:1025D0000348A6018348B601054785893308184199
:1025E000630EE82837170140639B052491454CCBC7
:1025F00037170140A145232AB7C03EDC62577D173B
:102600003ADC6DFF37170140A1452328B7C03EDEF5
:1026100072577D173ADE6DFF9305E8FF9DC53718A9
:102620000140130808C02143A148232A18013ED8BD
:1026300042577D173AD86DFF232868003EDA52577B
:102640007D173ADA6DFFFD15EDF13717014093055F
:1026500000022328B7C0A145232AB7C03ED4225781
:102660007D173AD46DFF37170140A1452328B7C025
:102670003ED6B257FD173ED6EDFF5C4265BB37171D
:1026800001401148232A07012DBB371F01407D431C
:10269000014E930E0FC0A142A14F23AAFE01BED44A
:1026A00026587D18C2D4E31D08FE03278F0023A8F7
:1026B0005E00BED60D8336587D18C2D6E31D08FED7
:1026C0007E073367C7017D13135E1700E31703FC12
:1026D0000347A6010548B308174137170140638334
:1026E00008172148232A07C1BED006587D18C2D03A
:1026F000E31D08FE371801400327880021432328E3
:1027000068C00D83058BBED216587D18C2D2E31D5A
:1027100008FEF918638B080237130140130303C046
:10272000214FA14E232AD301BECC66487D18C2CCCE
:10273000E31D08FE2328E301BECE76487D18C2CEF5
:10274000E31D08FEFD18E39F08FC371801409308BD
:102750000002232818C1A148232A18C1BEC8464830
:102760007D18C2C8E31D08FE37180140A148232880
:1027700018C1BECA56487D18C2CAE31D08FEE38BC5
:1027800005CA7E073367C70198C15C4265B17D48C1
:102790000143B71E0140214F214E232AC70183A7C1
:1027A0008E007D182328C7018D83FE07B3E76700DD
:1027B00013D31700E31308FE0348A6018547B308A7
:1027C0001841638DF810232AE70183A78E00F918BA
:1027D0002328E7018D8337170140858B130707C036
:1027E000214863890800232A070123280701FD18CF
:1027F000E39B08FE3717014013080002232807C196
:102800002148232A07C1232807C1E38505A0FE0725
:10281000B3E767009CC1FDBA23AAC80141BB232AC4
:10282000C801232AB3002328B300FD170583E398CA
:1028300007CCEDB13717014091450CCB01B3914561
:102840000CCB7DB313080002232807C12148232A9B
:1028500007C1BEC426477D17BAC46DFF37180140B3
:1028600003278800A148232818C10D83058BBEC605
:1028700036487D18C2C6E31D08FE11B73717014060
:1028800093080002232817C1B5C591450CCB371713
:102890000140A145232AB7C03ED002577D173AD048
:1028A0006DFF37170140A1452328B7C03ED292578C
:1028B000FD173ED2EDFF5C42B5BEB71701401308CD
:1028C000000223A807C115CB114798CBB7170140C9
:1028D000214723AAE7C023A8E7C02DBA9307000227
:1028E0001CCB232AE70183A78E002328E7018D83D1
:1028F000858B21BF91454CCB59BF1147D8CBF9B738
:1029000025C503A88191B71601401306F5FF4111B3
:1029100001450147938606C0930E0002214E2143D4
:10292000FD5815CD7D15937717009DC723A8D601B7
:1029300023AA660042C6B247FD173EC6EDFF23A894
:10294000C60142C4A247FD173EC4EDFF7D160583B4
:10295000E31916FD4101828023AAD601D1BF03C726
:1029600005001D458505C1B782809376F5034111A9
:1029700099E293060004938E41919377050803A58D
:102980004E00ADC7B718014021488145938808C063
:10299000214E214323AA68002AC29247FD173EC256
:1029A000EDFF83A7880023A8C8012AC013D75700CA
:1029B0008247FD173EC0EDFF93177700858193F79F
:1029C000F70F7D18DD8DFD1663090800E1F6B3D71A
:1029D00005012300F600410182802300B6000506B0
:1029E000FDDA03A54E00814521486DB7138E150011
:1029F00003C60500B71501402147938505C01303A1
:102A00000002A1482148937716008DCB23A86500CA
:102A100023AA05012AC6B247FD173EC6EDFF23A82B
:102A200015012AC4A247FD173EC4EDFF7D1705829C
:102A3000FD1601CBCDD293771600E9FB23AA6500E2
:102A4000C1BFD1DA03460E002147050E6DBF938644
:102A5000419183C7160013761500638A0718B717CC
:102A60000140938707C01307000298CB214823AA8F
:102A7000070123A807016314064CD8CB3717014080
:102A80002146130707C050CB9357150010CB13F600
:102A900017006304064C1306000210CB37170140E1
:102AA0002148130707C013562500232A07012328AE
:102AB000070113781600B29713060002630B084A49
:102AC00010CB371701402146130707C050CB1358CE
:102AD000350010CB13761800AA9763080648130632
:102AE000000210CB37170140130707C0214650CB17
:102AF000C29710CB858B63860746930700021CCBD9
:102B000037160140930706C02147D8CB98CB9308CE
:102B1000000223AA1701D8CB98CB23A81701D8CB42
:102B200098CB032706C0370810FF7D1833770701BD
:102B30002320E6C0032706C03703800003C88601B0
:102B4000336767002320E6C023A817014287214688
:102B500063060800D0CB90CB7D176DFFB71E0140F8
:102B6000138E0EC02147232AEE0083288E002328CF
:102B7000EE00232AEE0083278E002328EE00232A6E
:102B8000EE0003238E009183898B1353330013735C
:102B9000430093D85800B3E7670093F81800232840
:102BA000EE00B3E7170105476387E7549388E7FF13
:102BB00093F8D8FF130618027287A145638E084A5E
:102BC0004CCB0CCB7D166DFE1443370610FF7D16E3
:102BD000F18E14C31443B705300013060002CD8EE6
:102BE00014C310CB93F7F70F10CB3E858280DC42E5
:102BF0003717014013080002232807C1214831710B
:102C0000232A07C13EC10A477D173AC16DFF371716
:102C100001402148232807C13EC31A477D173AC304
:102C20006DFF37170140630F063413060002232897
:102C3000C7C0371701402146232AC7C03EC52A47CF
:102C40007D173AC56DFF3717014021462328C7C0BD
:102C50003EC73A477D173AC76DFF135715001376E5
:102C60001700630A063037160140130800022328B4
:102C700006C1371601402148232A06C13EC94A46EB
:102C80007D1632C96DFE371601402148232806C142
:102C90003ECB5A467D1632CB6DFE13562500137877
:102CA00016003297371601406301083013080002FE
:102CB000232806C1371601402148232A06C13ECDEC
:102CC0006A467D1632CD6DFE371601402148232815
:102CD00006C13ECF7A467D1632CF6DFE13583500C1
:102CE000137618002A97630B062A371601409308BB
:102CF0000002232816C137160140A148232A16C115
:102D00003ED10A567D1632D16DFE37160140A148DC
:102D1000232816C13ED31A567D1632D36DFE429734
:102D2000058B630607263717014013060002232888
:102D3000C7C0371701402146232AC7C03ED52A57AE
:102D40007D173AD56DFF3717014021462328C7C0AC
:102D50003ED73A577D173AD76DFF37170140130614
:102D60000002232AC7C02146232AC7C03ED94A579A
:102D70007D173AD96DFF3717014021462328C7C078
:102D80003EDB5A577D173ADB6DFF371701401306BC
:102D900000022328C7C02146232AC7C03EDD6A5748
:102DA0007D173ADD6DFF3717014021462328C7C044
:102DB0003EDF7A577D173ADF6DFF37170140032654
:102DC00007C0370810FF7D18337606012320C7C0DF
:102DD000832807C03708800003C68601B3E80801CE
:102DE000232017C1130807C0130700022328E80097
:102DF000B288214E214315C2232A6800BEDC6657E3
:102E00007D17BADC6DFF2328C801BEDE76577D171B
:102E1000BADE6DFFFD18E39108FE37170140214827
:102E2000232A07C1BED006577D17BAD06DFF3718C9
:102E30000140032388C021472328E8C013535300CF
:102E400013731300BED216587D18C2D2E31D08FEBC
:102E5000371701402148232A07C1BED426587D18C0
:102E6000C2D4E31D08FE37180140032788C0A148DB
:102E7000232818C11583BED636587D18C2D6E31D47
:102E800008FEA14837180140232A18C10607937885
:102E90002700BED846587D18C2D8E31D08FE371853
:102EA0000140032788C0214E2328C8C11583BEDAFC
:102EB00056587D18C2DAE31D08FE0A07118B3367E6
:102EC00017013367670005486301072F1308E7FF01
:102ED0001378D8FF93051602630E080C37160140CD
:102EE000130606C02148214548CA3EC4A246FD1625
:102EF00036C4EDFE232806013EC6B246FD1636C690
:102F0000EDFEFD15F5F1B717014083A607C03706A2
:102F100010FF7D16F18E23A0D7C083A607C0B7058A
:102F20003000138607C0CD8E23A0D7C093070002C0
:102F30001CCA1CCA9377F70F3E852961828098CB03
:102F4000371701402146130707C050CB9357150090
:102F500010CB13F61700E31006B41306000250CB93
:102F600035BE930700025CCB61BE1306000250CB56
:102F700095BE50CBB9B63716014013080002232A7C
:102F800006C1C5B913060002232AC7C05DB13717B1
:102F9000014013060002232AC7C061BB3716014057
:102FA00093080002232A16C1B9B313080002232A8A
:102FB00006C109B303CE960163000E2E937E250051
:102FC00063900E56630D0658B7150140938505C0F2
:102FD000A148214823AA05013ECCE246FD1636CC85
:102FE000EDFE23A815013ECEF246FD1636CEEDFECF
:102FF0007D166DF2B716014003A606C0B70510FF97
:10300000FD156D8E23A0C6C003A606C0370830008C
:10301000938506C03366060123A0C6C0930600024E
:1030200094C963000E04937E2500639C0E02B715BD
:103030000140938505C093060002D4C9130610020F
:1030400021482145C8C93EC8C246FD1636C8EDFE16
:1030500023A805013ECAD246FD1636CAEDFE7D16EE
:1030600075F2B71701409306000223A8D7C09377E3
:10307000F70F3E852961828083C596016387052409
:10308000937825006395084863040850371701407A
:10309000130707C0A14654CB14CB7D18E31D08FECF
:1030A0001443370610FF7D16F18E14C31443370600
:1030B000300093782500D18E14C39306000214CB00
:1030C0008DC163900802B716014013070002938672
:1030D00006C0D8CA214613071002D0CA90CA7D176D
:1030E0006DFF371701409306000293F7F70F23286F
:1030F000D7C03E858280937725006394073472861B
:10310000A147630708005CCA1CCA7D18E31D08FEBE
:10311000B717014003A707C0370610FF7D16718F50
:1031200023A0E7C003A707C037083000138607C0F5
:103130003367070123A0E7C0930700021CCA9C4124
:1031400013070002014637130140930E0002A14805
:1031500013FE1700130803C0630E0E022328D3C109
:10316000232A13C1232813C17D173E9685836DF34F
:10317000058AB717014013070002631F063C23AA04
:10318000E7C0B7170140214723AAE7C023A8E7C03B
:10319000854791A6232AD801232A1801232818013C
:1031A0007D173E9685834DF7E1B7137725006314AD
:1031B00007141DC637180140130808C02143A14851
:1031C000232A1801BEC006477D17BAC06DFF232809
:1031D0006800BEC216477D17BAC26DFF7D166DF23C
:1031E00037160140032706C0370810FF7D183377D4
:1031F00007012320E6C0032806C0B70830001307E4
:1032000006C033681801232006C11306000210CB44
:103210009041130800028148BA8513030002A14EB1
:10322000214E1377160035C723A8650023AAC501D0
:103230003EDC62577D173ADC6DFF23A8D5013EDEE8
:1032400072577D173ADE6DFF7D18B2980582E31A3A
:1032500008FC93F818003717014013060002639A20
:10326000082E232AC7C0371701402146232AC7C08A
:103270003ED842577D173AD86DFF37170140214697
:103280002328C7C03EDAD257FD173EDAEDFF854747
:10329000B9AA23AA650059BFE31806D2B71701409F
:1032A00083A607C0370610FF7D16F18E23A0D7C076
:1032B00083A607C0B7053000138607C0CD8E23A0B4
:1032C000D7C0930700021CCA69BBE31108DC03A73F
:1032D0000EC0B70610FFFD16758F23A0EEC003A722
:1032E0000EC0B7063000558F23A0EEC013070002B2
:1032F0002328EE00FDB337130140130E000281486E
:10330000814E130303C0A14F214F232AE301BECCFA
:1033100066477D17BACC6DFF032783002328F3018E
:10332000BECE1583058B76487D18C2CEE31D08FE00
:1033300093D818001318F7017D1EBA9EB3681801C0
:10334000E3150EFC371701402148232A07C1BEC8E8
:1033500046477D17BAC86DFF37170140032887C05D
:103360002143232867C01358580013781800BECA99
:1033700056477D17BACA6DFFB3C70E01858BFD177F
:10338000E59BA10789C523A0150103C686010DCAC7
:1033900003A84600B7150140938505C02143A14805
:1033A00023AA1501C2C426477D17BAC46DFF23A8FE
:1033B0006500C2C636477D17BAC66DFF7D166DF231
:1033C00037170140032607C0B70510FFFD156D8EA6
:1033D0002320C7C0032607C037083000930507C065
:1033E000336606012320C7C01307000298C913756E
:1033F000050819C123A4060003C6C60015CACC429D
:10340000B7160140938606C013070002D8CA2148A8
:103410002145C8CA2ED422577D173AD46DFF23A860
:1034200006012ED632577D173AD66DFF7D1675F2FE
:1034300037170140930600022328D7C03E85296133
:10344000828072869308000201470143214F214E7A
:10345000232AC6011C4605832328C6019583858B34
:10346000939EF701FD183E9333E7EE00E39208FECA
:10347000232AE6011C462328E6019583B347F3007F
:10348000858BFD17E59BA10781C598C103C88601FF
:1034900037170140130707C021466307080050CBC8
:1034A00010CB7D18E31D08FE37170140032607C027
:1034B000B70510FFFD156D8E2320C7C0032607C07A
:1034C00037083000930507C0336606012320C7C0C4
:1034D0001307000298C91375050819C123A4060033
:1034E00003C7C60009CFB716014013060002938632
:1034F00006C0D0CA2146D0CA90CA7D176DFF3717C3
:103500000140930600022328D7C03E85828013071E
:1035100010027286A14654CA14CA7D176DFFADB65B
:103520003718014093051002130808C02143A14831
:10353000232A18013ED08256FD1636D0EDFE2328F0
:1035400068003ED29256FD1636D2EDFEFD15EDF125
:1035500095BC2328C7C001BB23A8E7C01DB1B7167F
:10356000014003A606C0B70510FFFD156D8E23A010
:10357000C6C003A606C037053000938506C0498E35
:1035800023A0C6C09306000294C9E39C0EAC45B4C8
:1035900037170140832607C0370610FF7D16F18ECE
:1035A0002320D7C0832607C0B7053000130607C005
:1035B000CD8E2320D7C01307000218CAE39308B2A8
:1035C00019B6011122CC1384C18483A7018526CAB0
:1035D000044006CE4AC84EC652C49387070263FA17
:1035E0009700F2406244D2444249B249224A0561FE
:1035F00082809389418503AA0900370700201307B9
:10360000472193176A00D297BA972E894A86AA85CE
:103610003E85EF50E000230025057D478147630488
:10362000EA0093071A00850404C0F240624423A014
:10363000F900D2444249B249224A0561828001110F
:1036400022CC26CA9384C1851384018698401C40ED
:1036500006CE4AC84EC66307F70683D78188C207DD
:10366000C18381CBF2406244D2444249B2490561F0
:103670008280938481869840B7170020138907A41D
:10368000131567003A954A9583450504EF00F00A43
:1036900098407D46814693176700BA97CA9783C5BD
:1036A000070423A4B1846304C700930617001C40D9
:1036B000F24094C085071CC06244D2444249B249DA
:1036C000056182809389818403A709009307000420
:1036D000E31AF7F883D78188C207C183C1F7814510
:1036E00013050003EF00700598401C4023A009005B
:1036F000E30AF7F69DB7397122DC4AD83704002077
:10370000370900201D469305090C1305840B06DEBE
:1037100026DA4ED652D456D25AD05ECEEF40F06D55
:1037200001E583C77184E9C3B727002083C76757C2
:1037300013F7D70F69E78346190C0346090C03C733
:10374000A18083C7B180A2069304090CD18E4207E1
:10375000558F83C54400E207D98F03C6540003C5C3
:10376000640023A0F118238EB11637170020230020
:10377000C72602C202C402C62382A1183EC0DDE1F0
:1037800059E6374500408A8513050540B1472315A2
:10379000F100EF40A06A37250020930500041305CF
:1037A000454FEF20906903C524008348090C03C8E6
:1037B000140083C5340003C6440083C6540003C705
:1037C00064009307840B2381A70023801701A38043
:1037D0000701A381B7002382C700A382D7002383F8
:1037E000E700A38301840545F2506254D254425944
:1037F000B259225A925A025BF24B216182800547EC
:103800006387E704B70400209384040C69BF8547ED
:10381000630AF6028947E316F6F69307004023147D
:10382000F10085B78547638AF5008947E39AF5F487
:1038300089672313F10031D6D9BF8D672313F100B7
:1038400029D2F1B7930700602314F1001DBF03AA2A
:10385000418B83A7818B114B0545B307FA40E38564
:1038600067F983A9C18B37270020130787B6939781
:103870004900B38737419207BA971306000F814575
:103880003E85EFC0FF979304090CAA878348090C73
:1038900003C8140003C5240083C5340003C64400D4
:1038A00083C6540003C76400395323806700A38094
:1038B000170123810701A381A7002382B700A382F8
:1038C000C7002383D700A383E700850963886901C4
:1038D00023AE318B050A23AA418BF1B523AE018AB1
:1038E000D5BF011122CC1384C18583A7018626CAC6
:1038F000044006CE4AC84EC652C49387070263FAF4
:103900009700F2406244D2444249B249224A0561DA
:1039100082809389418603AA090037170020130784
:1039200007A493176A00D297BA972E894A86AA8568
:103930003E85EF40F04E230025057D478147630417
:10394000EA0093071A00850404C0F240624423A0F1
:10395000F900D2444249B249224A056182800111EC
:1039600022CC372400201304445726CA8344240061
:1039700006CE4AC84EC652C4A1CC89476380F40A19
:1039800005476385E414637D9702F2406244D244A4
:103990004249B249224A0561828083C7E183638339
:1039A0000722639FE70003C7C1836306F72883C725
:1039B000618F230009008507238BF18E23A00184EA
:1039C0006244F240D2444249B249224A056185B973
:1039D0009384018503A7C1849C40E303F7FE83C75A
:1039E000818F93F7F70FE9FF3745004093050008F3
:1039F00013050540EF40A05C6316051883472400BB
:103A00000547E37FF7FA09476386E702F24062441D
:103A1000D2444249B249224A056182809384018599
:103A200003A7C1849C406307F70083C7818F93F786
:103A3000F70FDDDB9384618403C904008547E31637
:103A4000F9F483C6A18E0947E381E6F403A68186D3
:103A5000B7160020938606A493156600B295B69516
:103A600003C8718183C9050403A5C185372A0020D5
:103A700003A601862385E18E93064A3F9307B0FB98
:103A8000230AFA3EA3800601238136016301C5188B
:103A9000372500204E861305753FEF4070388D099D
:103AA000A382218593F9F90F8347640003465400EC
:103AB000CE85A2075D8E13054A3FB72700202385D8
:103AC000372FEF20A01923800400C1B5138941844A
:103AD00003470900E30397ECE31407EE83C6A18EC6
:103AE000E380F6EE03A68185B70600209386462183
:103AF00093156600B295B69503C8618F83C9050416
:103B000003A5C184372A002003A601852385F18EF1
:103B100093064A3F9307B0FB230AFA3EA3800601AF
:103B200023813601630BC50E372500204E86130511
:103B3000753FEF40F02E9387D1839385390003C7FB
:103B4000070093F5F50F238E9182B7260020238579
:103B5000B62E19E323A001840347640003465400F2
:103B600013054A3F2207598E23809700EF20000F4C
:103B7000238F018223AC0182054783472400230061
:103B8000E900BDBD9389818503A70900B70700201F
:103B900093874721131567003A953E9583450504A1
:103BA000EF20502E03A70900FD4681476304D7008C
:103BB00093071700984023A0F900834724000507C6
:103BC00098C03DBD8347C4000346B40083A68183EB
:103BD000A207D18FE3E6F6DE938601849042834705
:103BE000E4008345D4000506A20790C2CD8F63FD93
:103BF000C70083C7C1836382E70683C7618F23A0A1
:103C000006008507238BF18E2300090055BBA38294
:103C10000184238106008D4941BD238E01820D4719
:103C2000B72700202385E72E2381060081448D4598
:103C30009387D18315B79389818583A709007D4731
:103C400081466384E7009386170093870185984334
:103C500023A0D900050798C399BB9389818583A7C1
:103C600009007D4701466384E700138617009387A8
:103C70000185984323A0C900050798C3BDBF730001
:103C8000203001A00945EF30205619E173002030A3
:103C90000545EF2040340945EF30E05673002030F1
:103CA0001145EF30605419E1730020300945EF20D1
:103CB00080321145EF30205573002030130500404D
:103CC000EF30805219E1730020300D45EF20A03015
:103CD00013050040EF30205373002030411101459F
:103CE00006C6EF3070620945EF3070600545EF3071
:103CF00050630545EF30D0660545EF30306405650B
:103D0000130505808545EF30F058B2400945410163
:103D10006F10C016B737024037070F009387074070
:103D20002D0798CB23AA070023AC07001307000434
:103D3000239CE70893060040239ED7082390E70AB8
:103D40002392E70A2394E70A2396E70A2398E70ACF
:103D5000239AE70A239CE70A239EE70A2390E70CAD
:103D60002392E70C2394E70C2396E70C2398E70CA7
:103D7000239AE70C3717002013078766D8CF371729
:103D8000002013078776F8CF371700201307472640
:103D900098D3371700201307876ED8D33717002022
:103DA00013078772F8D3371700201307876A98D74D
:103DB000239C070C0947238DE70CA38D070C930662
:103DC0002002239E070C13070002238FD70CA38F1A
:103DD000E70C2390070E2381D70EA381E70E2392D1
:103DE000070E2383D70EA383E70E2394070E2385A4
:103DF000D70EA385E70E2396070E2387D70EA3873A
:103E0000E70E2398070E2389D70EA389E70E239A7E
:103E1000070E238BD70EA38BE70E239C070E238D53
:103E2000D70EA38DE70E239E070E238FD70EA38FE9
:103E3000E70E239007102381D710A381E710239268
:103E400007102383D710A383E7102394071023853B
:103E5000D710A385E710239607102387D710A387D1
:103E6000E710239807102389D710A389E710239A16
:103E70000710238BD710A38BE710828005E1B7379B
:103E8000024003C707401377F70E2380E74003C7BC
:103E90000740136767002380E7408280411106C610
:103EA00022C437340240A30004404147A300E44049
:103EB00023000440130790022300E4402301044040
:103EC000130770022301E4407D572328E44099350D
:103ED0000945EF00B07A8347044093E707012300C8
:103EE000F440B240224441018280411122C426C2E2
:103EF00006C6AE841384818783570400C207C1833A
:103F0000E5FFAA8537150020268613058576EF4044
:103F100020718547C2042310F400C180B7370240E6
:103F2000239E974C03C7E74D1377C70F238FE74CAA
:103F3000B2402244924441018280411122C426C2EF
:103F400006C6AE841384818883570400C207C183E8
:103F5000E5FFAA8537150020268613058572EF40F8
:103F6000206C8546C2042310D400B7370240C180BC
:103F70002392974E03C7674E3726002003466657A5
:103F80001377C70F2383E74E19E2238ED18CB240FB
:103F90002244924441018280011122CE37340240F2
:103FA00026CC4ACA4EC852C6130404400347A40094
:103FB0009387A1881377F70F2380E70003C70700D3
:103FC000098B41CB0347B4008347B4003D8B9183F9
:103FD0008D8B15EF09476386E71699EB83C701813F
:103FE00013070002630AF74E231C040CA30D040CF4
:103FF000B737024009472385E7407244E2445249FB
:10400000C249324A938707400561730020308546D4
:10401000630ED70E0946630EC7228D45E31AB7FC1F
:104020006384C74EF1F70357C40093874188420762
:10403000418398C39C4399C32381D1883737024079
:104040008347774E93F7C70F93E72700A303F74EF5
:1040500045B703C707001377070239CBA947230DDC
:10406000F40C37150020A147A30DF40C93068566C8
:1040700083D7660003C7160003498566138401874A
:104080002310F400938701812380E700137709064A
:1040900025C303C70700930620021377F70F63E5D4
:1040A000E616A1660A0793860675369718430287B7
:1040B00003C70700058B631B071003C70700118B9D
:1040C000630007189387218703C707001377D70F6B
:1040D0002380E70085472387F18691472305F40075
:1040E0007244E2445249C249324A056173002030A9
:1040F00003C707002D461377F70F6367E6102166A5
:104100000A071306C67D3297184302878946638DD6
:10411000D738E39F07EC8356C40093874187C206D4
:10412000C18294C39C4399C3A389E1863737024077
:104130008347F74D93F7C70F93E72700A30FF74C7B
:1041400045BD83C70181154793F7F70F6389E736AC
:104150001947639AE71213840187835704001307F2
:10416000F003636EF738035904004209135909013B
:104170004A8AB719002083A4496637150020528661
:10418000A68513058566EF40A04903570400938771
:10419000F18033072741420741832310E40003C71E
:1041A0000700D29423A29966134717002380E700E3
:1041B00037370240231C274D83C7070093F7F70FBB
:1041C00093B717008E07230DF74C1DB59384C18656
:1041D00023800400813683C70400A301040093F701
:1041E000F70FA301F4008347A40093E7170023050A
:1041F000F40089472305F40091472305F400930751
:1042000000022305F400E9BD7D572380E700B7379E
:104210000240239C074C2D47238DE74CA38DE74C90
:10422000B7370240130700022385E7407244E24497
:104230005249C249324A93870740056173002030D2
:1042400083C707003707005093F7F70F2303F700E2
:1042500041BD6380E70CE39D07D80357C4009387F3
:10426000C1874207418398C39C4399C3238DD1865C
:10427000373702408347374E93F7C70F93E727003E
:10428000A301F74EB5B3231C040C9DB39387818023
:10429000371A00202322FA66938481809D470357B2
:1042A000040063F4E7002310F400835704001307AD
:1042B000F003930900046367F70083590400C209FF
:1042C00093D90901A6854E8613058566CE94EF40E5
:1042D000203523229A6693178901E187014763C33A
:1042E000071AB7370240239CE74C2147238DE74C40
:1042F00005BF371A002083244A6681474DB703570C
:104300000400230405668547E3F7E7FC2310F40067
:10431000D9B7239001888347240E93F7C70F93E7FB
:1043200027002301F40EE9B183C62600A386D186B7
:1043300005472387E18645B783C6D1860357040026
:1043400085472304D566E3F8E7F82310F40061B746
:1043500003D626009306200213578600E3E6E6EA1A
:10436000A5660A079386C68036971843028703C757
:1043700026002386E18685B71377F9010946630B8A
:10438000C720E31307E803C726008547E315F7F4C2
:104390009387218703C707001377E70F2380E70080
:1043A0001DBF83D7460023140566130710086386D4
:1043B000E72005476380E724035704008947E3FCAF
:1043C000E7F02310F40001BF1377F9016319071414
:1043D00003D726008546E319D7E2B706002083C637
:1043E000760093F60602E38106E22389E186E5B5CD
:1043F000A5649387048E371A00202322FA669384DB
:10440000048EA94769BD1376F60F0547630DE624B0
:104410006301062409476303E6260D47E316E6DE3B
:10442000B704002093878408371A00202322FA66F5
:1044300093848408E947A5B5B70400209387040056
:10444000371A00202322FA6693840400930730076A
:10445000B9B5B704002093874407371A00202322F8
:10446000FA669384440783C7070015BDA564938744
:104470008489371A00202322FA669384848993075B
:10448000400231BD83570400130700046366F70040
:10449000035704004207418383570400998FC207E2
:1044A000C1832310F40035BD239C01868347E40DAE
:1044B00093F7C70F93E72700230FF40C15BE83C7AC
:1044C000C186A301040093F7F70FA301F400231C96
:1044D000040C230D040C29BE8347B40093F7070492
:1044E00081CBB727002003C76757854763F7E706E7
:1044F000B7370240239C074CA38D074CD5BC130A49
:10450000000413090004B5B1239401888347640EA5
:1045100093F7C70F93E727002303F40ED1BC094696
:10452000E314C7CE03D72600E31007CE03C7460027
:10453000930610086308D71663E9E60C8546630AFC
:10454000D7148D46E312D7CCB737024003C7774E56
:1045500013673700A383E74EBDBBB7160020138750
:10456000866603A88666035547008345670003A651
:10457000C18813878180232007012312A70023030A
:10458000B7001307401FE375C7F623A60188A3836E
:10459000F184B9BF83C64600130610086388C608B5
:1045A000636BD6020547638AE6080D47E39EE6C4BF
:1045B000B7370240A383074E39BBB7370240938712
:1045C000074083C7E70D0D478D8BE397E7DE8547EF
:1045D0002304F566D5B3130620086385C6061306C3
:1045E0003008E393C6C2B73702402392074E2383B5
:1045F000E74ED5B1B73702409387074083C7F70D21
:104600000D478D8BE39AE7DAD9B793062008630448
:10461000D70A93063008E319D7BEB737024003C75D
:10462000674E136737002383E74E75B1B7370240F3
:10463000239E074C238FE74C79B9B7370240A38FED
:10464000074C51B9B73702402390074E2381E74EFC
:1046500059B193878182371A00202322FA66938406
:10466000818291472DB9A5649387C48B371A0020A6
:104670002322FA669384C48BC14715B1A56493873E
:10468000C48C371A00202322FA669384C48CD14745
:1046900039B1B737024003C7F74D13673700A38F0F
:1046A000E74C15B9B737024003C7E74D136737002A
:1046B000238FE74C0DB1B737024003C7274E13676E
:1046C00037002381E74E01B919719387C18B3ED220
:1046D0009387C18D3ECE9387818A3ED69387418A48
:1046E0003ED89387C1893EDA9387018A3EDC93875F
:1046F00011813EDE9387018D3ED49387818C3EC02D
:10470000CAD8CED6D2D4DAD0DECEB7260020B72B88
:1047100000209387418DA2DCA6DAE2CCE6CAEAC883
:10472000EEC686DED6D2138D4657138C418B938C02
:10473000818B938B8BB69389C18C1389018C138ADF
:10474000418C3ED0938DC18A138B018B0544914AD5
:1047500003C7318783472D001377F70F19CF63788D
:10476000F43637370240A389018693060740034792
:10477000F74D1377C70FA38FE60C9DCF0947638BC7
:10478000E7226388873A637BF41C03270C0083A726
:104790000D006303F71A83470D018346FD0023A034
:1047A000ED00A20723200B00D58FDDF3EFE0BFF46F
:1047B00045F1EFF0CF9A61BF03A70C0083270C00EF
:1047C000630EF718032809001306E00713174800C3
:1047D000330507411205B387AB0083C60700639218
:1047E000C62C83A70900330507411205139747001C
:1047F0001D8FB7270020938787F212073E979306F5
:10480000F007B387AB001306000F3A85814523807C
:10481000D7003EC2EFB0DF9E92472A873E85BA8519
:10482000EFC0FFF80328090083A8090083472D0083
:104830001305180003A30C00630855259306130005
:104840002320A90023A0DC00138718006308572544
:1048500023A0E90003270A0005072320EA00637F5D
:10486000F40E0947E393E7F2825783C70700E39EFC
:1048700087F0824703270A009C43E308F7F003C749
:10488000A18E8947E303F7F022572385F18E930722
:10489000F00E184393154700998D37270020920595
:1048A000130787F2BA9521A07D57638CE7463387BB
:1048B000F5000347070093960701C182FD176DD7E6
:1048C00085061396060141821377F60F930737008A
:1048D00093F7F70F3EC283C68181B7270020138567
:1048E000773F1308A0FAB7270020238A073F1388D1
:1048F000473FA300D8009386473F2381E600EF306F
:10490000305203476D0003465D0092472207598EDF
:1049100037270020BE851305473F37270020230592
:10492000F72EEF10A033825703270C0023800700D7
:1049300083A70D00E311F7E683470D018346FD00D1
:1049400003270B00A207D58FE364F7E0EFE0BFDA9F
:10495000E31005E0B9BDB2572380070083D78187F4
:10496000C207C183E39307E2824703270A009C43FF
:10497000E30DF7E083D78187C207C183E39707E0A0
:1049800022579305000F1C43139547001D8DB72731
:104990000020938787F212053E95EFF00FD522573E
:1049A0001C438507638E572B1CC302471C43850796
:1049B0001CC3E1BB03A30C0003270C00E30667EA5A
:1049C000032809009306E00713174800330E074138
:1049D000120E5E9E834E0E00E385DEE083A8090082
:1049E0003EC8B727002093964800B386164192062A
:1049F000938787F23387D7003A851306000F8145E6
:104A000072CC1ACA42C676C446C2EFB06FFF624E7D
:104A1000A24E9306E00E2A87924872853248C2471A
:104A20005243E39EDEDE034F1E00834E2E000345FD
:104A30003E0083454E0003465E0083466E000347FA
:104A40007E00370E00202300EE0D130F0E0CA30086
:104A5000DF01930E0E0C2381AE007285130E0E0C37
:104A6000A301BE00AA851305050C2302C5002E86EE
:104A70009385050CA382D5009306060C2383E600DC
:104A800013051800E31C55DB9306130023200900CF
:104A900023A0DC0013871800E31C57DB23A00900C8
:104AA00055BB83A609003EC2B727002013974600D6
:104AB000158F938787F212073E973A851306000FEA
:104AC0008145EFB0EFF392472A873E8589BB0328E3
:104AD0000C0003A70C0042C23307E84063045705EB
:104AE0003EC692571306000F9443B71700209385D4
:104AF000472613974600158F12075E973A8536C4EE
:104B0000EF301032034705001D46A246B247124857
:104B10006305C71485061257638E561314C3050820
:104B200023200C01E39F07C2724785462300D7006C
:104B30000DB983A60C0083270C00E381D7E2B2579E
:104B400083C707006381870CE39A07E083C7A18EC0
:104B5000E386E7E0832609002385E18E9307F00EC4
:104B600093954600958D9205DE9521A07D57638231
:104B7000E71C3387F5000347070093960701C182BE
:104B8000FD176DD785061396060141821377F60F40
:104B90009307370093F7F70F3EC283C6718FB7278D
:104BA00000201385773F1308A0FAB7270020238A37
:104BB000073F1388473FA300D8009386473F2381D0
:104BC000E600EF30F02503476D0003465D00924795
:104BD0002207598E37270020BE851305473F372708
:104BE00000202305F72EEF106007D25603270A0096
:104BF00083472D0023A00600C25698C2325785462F
:104C00002300D700A9B94257104303270A00630CB9
:104C1000E604032609009305E00E13174600118FE2
:104C200012075E97034707006301B70C0506630789
:104C3000560F2320C90003C7718F850623A0DC000F
:104C40000507A38BE18E325723000700625723200C
:104C5000070031B123200700D9B5238C8194D9B541
:104C60002320070099B3D25603478D0003467D00E9
:104C700094422207518FE3E3E6CEE2550347AD00AD
:104C800003469D0094412207518F850694C1E37429
:104C9000D7CC832609001306E00E13974600158F24
:104CA00012075E97034707006309C7081257B72624
:104CB00000202320090023200700225723200C0076
:104CC00023A00C0023200700024723A089002320F3
:104CD0008A00232007007D572384E6F262572320B1
:104CE00007003257230007009DBE72570347070095
:104CF0000DEF03D78188420741830DFBB797000072
:104D000013850790C545EFF04FA30326090083A63E
:104D10000C0083472D000506E31D56F123200900F2
:104D200019BF8D470146014775B67257230007002A
:104D3000F5BD8D470146014785B57257034707000A
:104D400005E303D78188420741832DF3B79700001D
:104D50001385C78EC945EFF04F9E83472D00B9B725
:104D600072572300070099B79386C1891387818DF5
:104D70009387C18803A8060003A581830C43904351
:104D800003AE418B411103A3C18A06C60508050580
:104D90008505050623A0060123ACA1820CC390C3A0
:104DA00063176E009387018B9843050798C3B72755
:104DB000002083C6675705479387F6FF93F7F70FE1
:104DC000637DF70295E69387C18D83C60700638AEA
:104DD000E60693874189984399E2050798C39307AC
:104DE000401F63FAE7089387818905472380E7001E
:104DF000EF105037B2404101FDA283C6418F63805E
:104E0000E60693870189984399E2050798C393368C
:104E1000571F938781892380D7009306401FE3E9BA
:104E2000E6FC83C6518F05476384E60413874189F6
:104E3000104399E2050610C31307401FE367C7FA42
:104E400039A02380070023AA018893878189094715
:104E50002380E700EF101031B240410169A293872F
:104E60008189238A018E23A801882380D70055BF1A
:104E700023AA0188E9BF93878189D1BF1387818DD8
:104E8000232007001C43E3EFA7FE8280372518008C
:104E900039718545450506DE22DC26DA02CA02CCD8
:104EA00002CE02D002D202D402D602C402C6231815
:104EB0000100EF2010403705008085451105EF20E7
:104EC000700A3705138085452105EF20B0093705A5
:104ED0001580854513050502EF20D008F977231AC0
:104EE000F100E1474C083ECE371501408D473ECCDE
:104EF000EF20E03D373401409307F059130504409B
:104F00002C003EC493073006B75401403EC6EF2044
:104F100010502C00138504C0EF20704F2C00375523
:104F20000140EF20D04EC167938707071305044067
:104F30000C103ED0930720032313F1022314010227
:104F4000EF20505A0C10138504C0EF20B0590C10FC
:104F500037550140EF201059130504408545EF20D7
:104F60005064130504408145EF2010691305044087
:104F70008545EF205066130504408545EF2070609D
:104F8000138504C08545EF20D061138504C0814599
:104F9000EF209066138504C08545EF20D06313850C
:104FA00004C08545EF20F05D854537550140EF2071
:104FB000505F814537550140EF20106485453755D6
:104FC0000140EF205061854537550140EF20705B6F
:104FD000F250231004446254239004C42390040428
:104FE000D254216182801387018E1C4383C6D190E5
:104FF00085071CC30546638BC60A09476387E61607
:1050000083C681896381E604B1E69306803E23A2CC
:10501000D18E1307803EB3F7E7028DE71387818EA9
:1050200083470700B726002083C6665793B717004B
:105030002300F700638C061005476386E6220947C4
:105040006385E61A82809306B00423A2D18E1307EB
:10505000B004D1B76394C6243726002003466657B0
:1050600041E213078070B3F7E7023737014023109E
:10507000074437570140231007C41387918E834696
:10508000070089E793B616002300D7005147B3D72E
:10509000E7026389061213074006B307F740C20709
:1050A000C183375701402310F704828083C7E19002
:1050B000C9C3638DD7180947638CE7100D47E39385
:1050C000E7F8B7370140239007443757014093066C
:1050D00060042310D7C4930730022310F7048280A2
:1050E0006304D612E310E6F613078070B3F7E70205
:1050F00037370140231007441387918E83460700FA
:1051000089E793B616002300D7005147B3D7E702CB
:105110006380061813074006B307F740C207C18330
:10512000375701402310F7C4B757014023900704B5
:105130008280B7370140239007443757014023103E
:1051400007C4930740062310F70482801307400624
:10515000B387E70237370140B756014023100744B1
:10516000239006C42390F60482809306800CB3F744
:10517000D7021387818E23A2D18E8346070091C761
:1051800093B616002300D7008280B336D000139662
:105190000601418293056004B305B60293173600F9
:1051A000B2978A072300D700918F37370140B7564F
:1051B000014023100744C2072390B6C4C183239043
:1051C000F6048280A907375701402310F704828034
:1051D000B7370140375701402390074493064006F4
:1051E0002310D7C423100704828013074006B38717
:1051F000E70237370140B756014023100744239098
:10520000F6C423900604828013078070B3F7E70288
:105210001387918E8346070089E793B61600230013
:10522000D7005147B3D7E702B1CE13074006B30703
:10523000F740C207C183373701402310F744B757FF
:105240000140239007C4239007048280B7370140B0
:1052500093064006375701402390D744231007C4D4
:1052600023100704828013074006B387E70237370D
:105270000140B75601402310F744239006C4239001
:1052800006048280A907373701402310F74445BF41
:10529000A907375701402310F7C479B503A7418EFA
:1052A0009DBB4111094506C6EF20C05BEF10F0051C
:1052B000EF10C05B9305F05913053006EF1000089E
:1052C0001305800CEFF09FBB1921B72700209387AF
:1052D000475703C7470003C537002207598DEF0022
:1052E000B036EF10C025EF10201A372500209305A7
:1052F00000041305454FEF104034EFC0AFD2EFE08C
:10530000FF9D0545EFE09FB7B7E700E037072000B6
:1053100023A4E710EFF09FB79305F0592545EF0060
:10532000907B1305401FEFF07FB50145EFF0CFB93B
:10533000B2400145410182800565797185451105BD
:1053400006D622D426D24AD03714014002C002C267
:1053500002C402C602C802CA02CC231E0100EF200A
:10536000407561498D448A851305048093070002C6
:105370002310F1004AC426C2EF1070759307000491
:105380008A85130504802310F10091473EC4EF1075
:1053900010748A8513050480930700082310F10018
:1053A0004AC426C2EF10B072B70704013EC6B70761
:1053B00000023ECAC1476C003ECC373501409D47D4
:1053C000231EF10002C8EF20007B854537350140E0
:1053D000EF205000B250225492540259456182800D
:1053E000411122C406C62A84894537350140EF2081
:1053F00050017DD9A28537350140EF20C07F373776
:10540000014083578700858BEDDF37350140EF2062
:10541000E07EB24022441375F50F4101828039CEFF
:10542000011122CC26CA4EC606CE4AC82A84AE84B2
:10543000B309C50003490400894537350140EF2011
:10544000407C7DD9CA8537350140EF20C07A373797
:10545000014083578700858BEDDF37350140EF2012
:10546000E0792380A40005048504E31534FDF240AF
:105470006244D2444249B249056182808280A9C90E
:10548000411122C44AC006C626C22A843309B50087
:1054900083440400894537350140EF2080767DD96B
:1054A000A68537350140EF20007537370140835717
:1054B0008700858BEDDF050437350140EF20007450
:1054C000E31889FCB240224492440249410182809F
:1054D0008280B9C5411122C426C206C62A84B304FB
:1054E000B500894537350140EF20A0717DD9814550
:1054F00037350140EF202070373701408357870050
:10550000858BEDDF37350140EF20406F2300A4008D
:105510000504E31894FCB240224492444101828085
:1055200082805D7186C6A2C4A6C2CAC04EDE52DCAD
:1055300056DA193585451305D00702CA02CC02CECA
:1055400002D002D202D402D602C602C8EF206056B0
:105550003714014085474C08130504C0231AF10095
:10556000930780023ECEEF1090568D44C1499307B9
:1055700000024C0837150140231AF1004ECE26CC0C
:10558000EF10F05405469305000237150140EF2057
:10559000C01C930A800489474C08130504C0231AD1
:1055A000F10056CEEF10B05285450545EF20E028BA
:1055B0000549214A081089473ED052D44AD602D222
:1055C000EF10B03B6800930770212316F10023070A
:1055D00091004AC8EF20602991474C08130504C088
:1055E000231AF10056CEEF10904E89450545EF2065
:1055F000C024081091473ED052D44AD602D2EF10B0
:10560000D0376800930780212316F100230791000B
:105610004AC8EF208025930700404C08130504C0BA
:10562000231AF10056CEEF10904AA9450545EF2008
:10563000C0200810930700403ED052D44AD602D270
:10564000EF10B033680093078023056A2316F1003A
:10565000230791004AC8EF20402193070A804C0895
:10566000130504C0231AF1004ECE26CCEF103046AD
:105670004C08130504C0231A41014ECE26CCEF106E
:1056800010454C0837150140231A31014ECE26CC67
:10569000EF10F0430546C14537150140EF20E00B00
:1056A0008565130504C0014693850580EF20E00A57
:1056B000130504C005468565EF20200AB640264440
:1056C00096440649F259625AD25A616182807971D0
:1056D00022D43714014006D626D24AD04ECE52CC20
:1056E000130404C03D3D85452285EF2060068547B3
:1056F000E30BF5FE0146C14537150140EF20E005FB
:1057000013056009EFF0DFCD0145EFF07FCD0546D1
:10571000C1453715014037140140EF200004130440
:1057200004C085452285EF20A0028547E30BF5FEE6
:105730000146C14537150140EF202002130500083E
:10574000EFF01FCA0145EFF0BFC90546C145371547
:10575000014037140140EF204000130404C0854588
:105760002285EF10F07E8547E30BF5FE0146C1452B
:1057700037150140EF10707E1305A008EFF05FC6EB
:105780000145EFF0FFC50546C145371501403724F7
:105790000020EF10907C13044457034534018346E6
:1057A000240183474401034754012205558DC20754
:1057B000C98F131587015D8DEF207056B7970000D4
:1057C00003A6879183A6C791371A0140130A0AC01E
:1057D000EF203004EF20F04E935905011359850056
:1057E00093F9F90F1379F90F9374F50F85455285E5
:1057F000EF1010768547E30BF5FE0146C1453715DE
:105800000140EF10907513056008EFF07FBD4E85E5
:10581000EFF01FBD4A85EFF0BFBC2685EFF05FBCFF
:105820000546C14537150140B7140140EF10F0722D
:10583000938404C085452685EF1090718547E30B5E
:10584000F5FE0146C14537150140EF1010711305F3
:10585000F008EFF0FFB80145EFF09FB80145EFF019
:105860003FB80546C14537150140EF10106F034999
:105870006401B7140140938404C085452685EF1068
:10588000306D8547E30BF5FE0146C14537150140F4
:10589000EF10B06C1305B008EFF09FB44A85EFF03D
:1058A0003FB40D45EFF0DFB34145EFF07FB3054660
:1058B000C14537150140EF10506A03041401B714B5
:1058C0000140938404C085452685EF1070688547A4
:1058D000E30BF5FE0146C14537150140EF10F067B7
:1058E0001305E008EFF0DFAF130524011375F50F82
:1058F000EFF01FAF0145EFF0BFAE0546C1453715CC
:10590000014037140140EF105065130404C0854571
:105910002285EF10F0638547E30BF5FE0146C14594
:1059200037150140EF1070636145EFF07FAB2545FF
:10593000EFF01FAB1305E00CEFF09FAA3725002016
:1059400095451305B558EFF09FB30546C14537158A
:105950000140EF109060B717C855938787913714AF
:1059600001403EC0130404C085452285EF10505EFF
:105970008547E30BF5FE0146C14537150140EF10A1
:10598000D05D91450A85EFF09FAF0546C1453715BB
:105990000140EF10905CB717C95593878791371472
:1059A00001403EC0130404C085452285EF10505AC3
:1059B0008547E30BF5FE0146C14537150140EF1061
:1059C000D0590A859145EFF09FAB0546C145371583
:1059D0000140EF109058B250225492540259F249AB
:1059E000624A45618280B727002083C6B72EB72759
:1059F000002003C7675793B7460093C717000111EC
:105A0000A38AF18E054622CC06CE26CA4AC84EC6C7
:105A100052C456C25AC0238AC18E05446306870801
:105A20008947630CF700F2406244D2444249B249CC
:105A3000224A924A024B05618280B727002003C7A1
:105A4000C72E1306A00A630FC70A1306B00BE31C88
:105A5000C7FC9387C72E1387718103C617000345C0
:105A6000070083C727009385D6FF630CC51AE39C04
:105A7000F5FA2300C7008D4763EFD71A83C7518417
:105A800085462383D184C5D383A781867D4701467C
:105A90006384E7001386170083A7018623A4C186C9
:105AA000850723A0F18641B7B727002003C6C72E7C
:105AB0009305A00A6300B6109305B00BE315B6F684
:105AC0009387C72E83C5170003C6618FE39DC5F476
:105AD00083C527009387D6FFE397F5F4238FE182F0
